{
  "_format": "hh-sol-artifact-1",
  "contractName": "BlockyVerifierEmitter",
  "sourceName": "contracts/BlockyVerifierEmitter.sol",
  "abi": [
    {
      "inputs": [
        {
          "internalType": "address",
          "name": "_storkVerifierContractAddress",
          "type": "address"
        }
      ],
      "stateMutability": "nonpayable",
      "type": "constructor"
    },
    {
      "anonymous": false,
      "inputs": [
        {
          "indexed": false,
          "internalType": "bool",
          "name": "verified",
          "type": "bool"
        }
      ],
      "name": "Verified",
      "type": "event"
    },
    {
      "inputs": [
        {
          "internalType": "address",
          "name": "storkPubKey",
          "type": "address"
        },
        {
          "internalType": "bytes32",
          "name": "id",
          "type": "bytes32"
        },
        {
          "internalType": "uint256",
          "name": "recvTime",
          "type": "uint256"
        },
        {
          "internalType": "int256",
          "name": "quantizedValue",
          "type": "int256"
        },
        {
          "internalType": "bytes32",
          "name": "publisherMerkleRoot",
          "type": "bytes32"
        },
        {
          "internalType": "bytes32",
          "name": "valueComputeAlgHash",
          "type": "bytes32"
        },
        {
          "internalType": "bytes32",
          "name": "r",
          "type": "bytes32"
        },
        {
          "internalType": "bytes32",
          "name": "s",
          "type": "bytes32"
        },
        {
          "internalType": "uint8",
          "name": "v",
          "type": "uint8"
        }
      ],
      "name": "verifyStorkSignatureV1",
      "outputs": [
        {
          "internalType": "bool",
          "name": "",
          "type": "bool"
        }
      ],
      "stateMutability": "nonpayable",
      "type": "function"
    }
  ],
  "bytecode": "0x608060405234801561001057600080fd5b50604051610613380380610613833981810160405281019061003291906100db565b806000806101000a81548173ffffffffffffffffffffffffffffffffffffffff021916908373ffffffffffffffffffffffffffffffffffffffff16021790555050610108565b600080fd5b600073ffffffffffffffffffffffffffffffffffffffff82169050919050565b60006100a88261007d565b9050919050565b6100b88161009d565b81146100c357600080fd5b50565b6000815190506100d5816100af565b92915050565b6000602082840312156100f1576100f0610078565b5b60006100ff848285016100c6565b91505092915050565b6104fc806101176000396000f3fe608060405234801561001057600080fd5b506004361061002b5760003560e01c80632a6cd21014610030575b600080fd5b61004a60048036038101906100459190610295565b610060565b604051610057919061037a565b60405180910390f35b60008060008054906101000a900473ffffffffffffffffffffffffffffffffffffffff1673ffffffffffffffffffffffffffffffffffffffff16632a6cd2108c8c8c8c8c8c8c8c8c6040518a63ffffffff1660e01b81526004016100cc999897969594939291906103e0565b602060405180830381865afa1580156100e9573d6000803e3d6000fd5b505050506040513d601f19601f8201168201806040525081019061010d9190610499565b90507f31f0cd2056cb14961826087872d64b913fa6118127d4fceade8a9cfe80cce5f58160405161013e919061037a565b60405180910390a1809150509998505050505050505050565b600080fd5b600073ffffffffffffffffffffffffffffffffffffffff82169050919050565b60006101878261015c565b9050919050565b6101978161017c565b81146101a257600080fd5b50565b6000813590506101b48161018e565b92915050565b6000819050919050565b6101cd816101ba565b81146101d857600080fd5b50565b6000813590506101ea816101c4565b92915050565b6000819050919050565b610203816101f0565b811461020e57600080fd5b50565b600081359050610220816101fa565b92915050565b6000819050919050565b61023981610226565b811461024457600080fd5b50565b60008135905061025681610230565b92915050565b600060ff82169050919050565b6102728161025c565b811461027d57600080fd5b50565b60008135905061028f81610269565b92915050565b60008060008060008060008060006101208a8c0312156102b8576102b7610157565b5b60006102c68c828d016101a5565b99505060206102d78c828d016101db565b98505060406102e88c828d01610211565b97505060606102f98c828d01610247565b965050608061030a8c828d016101db565b95505060a061031b8c828d016101db565b94505060c061032c8c828d016101db565b93505060e061033d8c828d016101db565b92505061010061034f8c828d01610280565b9150509295985092959850929598565b60008115159050919050565b6103748161035f565b82525050565b600060208201905061038f600083018461036b565b92915050565b61039e8161017c565b82525050565b6103ad816101ba565b82525050565b6103bc816101f0565b82525050565b6103cb81610226565b82525050565b6103da8161025c565b82525050565b6000610120820190506103f6600083018c610395565b610403602083018b6103a4565b610410604083018a6103b3565b61041d60608301896103c2565b61042a60808301886103a4565b61043760a08301876103a4565b61044460c08301866103a4565b61045160e08301856103a4565b61045f6101008301846103d1565b9a9950505050505050505050565b6104768161035f565b811461048157600080fd5b50565b6000815190506104938161046d565b92915050565b6000602082840312156104af576104ae610157565b5b60006104bd84828501610484565b9150509291505056fea26469706673582212202f3eb8d5be9d3a1abfbd16076c0234464672c7f6f1619b2b13b3273eddb9411864736f6c63430008180033",
  "linkReferences": {},
  "deployedLinkReferences": {}
}